{
  "contractName": "CampEth",
  "abi": [
    {
      "constant": false,
      "inputs": [
        {
          "name": "quantity",
          "type": "uint256"
        }
      ],
      "name": "Buy",
      "outputs": [],
      "payable": true,
      "stateMutability": "payable",
      "type": "function"
    },
    {
      "constant": false,
      "inputs": [],
      "name": "TestCreateDetail",
      "outputs": [],
      "payable": false,
      "stateMutability": "nonpayable",
      "type": "function"
    },
    {
      "constant": true,
      "inputs": [],
      "name": "GetBuyers",
      "outputs": [
        {
          "name": "",
          "type": "address[]"
        },
        {
          "name": "",
          "type": "uint256[]"
        }
      ],
      "payable": false,
      "stateMutability": "view",
      "type": "function"
    },
    {
      "constant": true,
      "inputs": [],
      "name": "GetCampaignInfo",
      "outputs": [
        {
          "name": "",
          "type": "string"
        },
        {
          "name": "",
          "type": "uint256"
        },
        {
          "name": "",
          "type": "bool"
        },
        {
          "name": "",
          "type": "bool"
        },
        {
          "name": "",
          "type": "uint256[]"
        },
        {
          "name": "",
          "type": "uint256[]"
        },
        {
          "name": "",
          "type": "address"
        },
        {
          "name": "",
          "type": "address"
        },
        {
          "name": "",
          "type": "uint256"
        }
      ],
      "payable": false,
      "stateMutability": "view",
      "type": "function"
    },
    {
      "constant": false,
      "inputs": [],
      "name": "EndCampaign",
      "outputs": [],
      "payable": false,
      "stateMutability": "nonpayable",
      "type": "function"
    },
    {
      "constant": false,
      "inputs": [],
      "name": "StartCampaign",
      "outputs": [
        {
          "name": "",
          "type": "bool"
        }
      ],
      "payable": false,
      "stateMutability": "nonpayable",
      "type": "function"
    },
    {
      "constant": false,
      "inputs": [
        {
          "name": "quantityLevel",
          "type": "uint256"
        },
        {
          "name": "price",
          "type": "uint256"
        }
      ],
      "name": "AddCampaignDetail",
      "outputs": [],
      "payable": false,
      "stateMutability": "nonpayable",
      "type": "function"
    },
    {
      "constant": true,
      "inputs": [],
      "name": "getTotalQuantity",
      "outputs": [
        {
          "name": "totalQuantity",
          "type": "uint256"
        }
      ],
      "payable": false,
      "stateMutability": "view",
      "type": "function"
    },
    {
      "constant": true,
      "inputs": [],
      "name": "GetCoupon",
      "outputs": [
        {
          "name": "",
          "type": "string"
        }
      ],
      "payable": false,
      "stateMutability": "view",
      "type": "function"
    },
    {
      "constant": true,
      "inputs": [],
      "name": "GetEnded",
      "outputs": [
        {
          "name": "",
          "type": "bool"
        }
      ],
      "payable": false,
      "stateMutability": "view",
      "type": "function"
    },
    {
      "constant": false,
      "inputs": [],
      "name": "TestCreateDetail2",
      "outputs": [],
      "payable": false,
      "stateMutability": "nonpayable",
      "type": "function"
    },
    {
      "constant": true,
      "inputs": [
        {
          "name": "x",
          "type": "bytes32"
        }
      ],
      "name": "bytes32ToString",
      "outputs": [
        {
          "name": "",
          "type": "string"
        }
      ],
      "payable": false,
      "stateMutability": "view",
      "type": "function"
    },
    {
      "constant": true,
      "inputs": [
        {
          "name": "",
          "type": "uint256"
        }
      ],
      "name": "_coupons",
      "outputs": [
        {
          "name": "",
          "type": "bytes32"
        }
      ],
      "payable": false,
      "stateMutability": "view",
      "type": "function"
    },
    {
      "constant": true,
      "inputs": [
        {
          "name": "",
          "type": "address"
        }
      ],
      "name": "_soldcoupons",
      "outputs": [
        {
          "name": "",
          "type": "string"
        }
      ],
      "payable": false,
      "stateMutability": "view",
      "type": "function"
    },
    {
      "constant": true,
      "inputs": [],
      "name": "checkBalance",
      "outputs": [
        {
          "name": "",
          "type": "uint256"
        }
      ],
      "payable": false,
      "stateMutability": "view",
      "type": "function"
    },
    {
      "constant": true,
      "inputs": [
        {
          "name": "quantity",
          "type": "uint256"
        }
      ],
      "name": "getPriceForQuantity",
      "outputs": [
        {
          "name": "_price",
          "type": "uint256"
        }
      ],
      "payable": false,
      "stateMutability": "view",
      "type": "function"
    },
    {
      "constant": true,
      "inputs": [
        {
          "name": "index",
          "type": "uint256"
        }
      ],
      "name": "TestGetCoupon",
      "outputs": [
        {
          "name": "",
          "type": "string"
        }
      ],
      "payable": false,
      "stateMutability": "view",
      "type": "function"
    },
    {
      "constant": true,
      "inputs": [],
      "name": "getCurrentPrice",
      "outputs": [
        {
          "name": "_currentPrice",
          "type": "uint256"
        }
      ],
      "payable": false,
      "stateMutability": "view",
      "type": "function"
    },
    {
      "constant": true,
      "inputs": [],
      "name": "GetStarted",
      "outputs": [
        {
          "name": "",
          "type": "bool"
        }
      ],
      "payable": false,
      "stateMutability": "view",
      "type": "function"
    },
    {
      "inputs": [
        {
          "name": "code",
          "type": "string"
        },
        {
          "name": "name",
          "type": "string"
        },
        {
          "name": "limit",
          "type": "uint256"
        },
        {
          "name": "addPriceTime",
          "type": "uint256"
        },
        {
          "name": "coupons",
          "type": "bytes32[]"
        }
      ],
      "payable": false,
      "stateMutability": "nonpayable",
      "type": "constructor"
    },
    {
      "anonymous": false,
      "inputs": [
        {
          "indexed": false,
          "name": "price",
          "type": "uint256"
        }
      ],
      "name": "PriceDecreased",
      "type": "event"
    },
    {
      "anonymous": false,
      "inputs": [
        {
          "indexed": false,
          "name": "price",
          "type": "uint256"
        }
      ],
      "name": "CampaignEnded",
      "type": "event"
    }
  ],
  "bytecode": "0x6060604052600060075534156200001557600080fd5b60405162001dc138038062001dc1833981016040528080518201919060200180518201919060200180519060200190919080519060200190919080518201919050508281511415156200006757600080fd5b6000600660156101000a81548160ff0219169083151502179055506000600660146101000a81548160ff021916908315150217905550608060405190810160405280868152602001858152602001834201815260200184815250600080820151816000019080519060200190620000e09291906200017c565b506020820151816001019080519060200190620000ff9291906200017c565b50604082015181600201556060820151816003015590505080600890805190602001906200012f92919062000203565b5033600660006101000a81548173ffffffffffffffffffffffffffffffffffffffff021916908373ffffffffffffffffffffffffffffffffffffffff1602179055505050505050620002ab565b828054600181600116156101000203166002900490600052602060002090601f016020900481019282601f10620001bf57805160ff1916838001178555620001f0565b82800160010185558215620001f0579182015b82811115620001ef578251825591602001919060010190620001d2565b5b509050620001ff91906200025b565b5090565b82805482825590600052602060002090810192821562000248579160200282015b828111156200024757825182906000191690559160200191906001019062000224565b5b50905062000257919062000283565b5090565b6200028091905b808211156200027c57600081600090555060010162000262565b5090565b90565b620002a891905b80821115620002a45760008160009055506001016200028a565b5090565b90565b611b0680620002bb6000396000f300606060405260043610610107576000357c0100000000000000000000000000000000000000000000000000000000900463ffffffff1680633e3282181461010c5780634759a178146101245780634fb0073d146101395780635e40a11e146101eb5780636f40b4701461039357806370d271ab146103a8578063725b21f6146103d55780637474e33114610401578063752601c51461042a57806375bf7721146104b857806383a40e3e146104e55780639201de55146104fa578063b78ebbd71461059a578063c0ab045c146105d9578063c71daccb1461068b578063d02b23b8146106b4578063dc37a664146106eb578063eb91d37e14610787578063f197b7ff146107b0575b600080fd5b61012260048080359060200190919050506107dd565b005b341561012f57600080fd5b6101376109c9565b005b341561014457600080fd5b61014c610a1f565b604051808060200180602001838103835285818151815260200191508051906020019060200280838360005b83811015610193578082015181840152602081019050610178565b50505050905001838103825284818151815260200191508051906020019060200280838360005b838110156101d55780820151818401526020810190506101ba565b5050505090500194505050505060405180910390f35b34156101f657600080fd5b6101fe610b81565b60405180806020018a8152602001891515151581526020018815151515815260200180602001806020018773ffffffffffffffffffffffffffffffffffffffff1673ffffffffffffffffffffffffffffffffffffffff1681526020018673ffffffffffffffffffffffffffffffffffffffff1673ffffffffffffffffffffffffffffffffffffffff16815260200185815260200184810384528d818151815260200191508051906020019080838360005b838110156102ca5780820151818401526020810190506102af565b50505050905090810190601f1680156102f75780820380516001836020036101000a031916815260200191505b50848103835289818151815260200191508051906020019060200280838360005b83811015610333578082015181840152602081019050610318565b50505050905001848103825288818151815260200191508051906020019060200280838360005b8381101561037557808201518184015260208101905061035a565b505050509050019c5050505050505050505050505060405180910390f35b341561039e57600080fd5b6103a6610db6565b005b34156103b357600080fd5b6103bb6110fd565b604051808215151515815260200191505060405180910390f35b34156103e057600080fd5b6103ff60048080359060200190919080359060200190919050506111c6565b005b341561040c57600080fd5b610414611346565b6040518082815260200191505060405180910390f35b341561043557600080fd5b61043d611395565b6040518080602001828103825283818151815260200191508051906020019080838360005b8381101561047d578082015181840152602081019050610462565b50505050905090810190601f1680156104aa5780820380516001836020036101000a031916815260200191505b509250505060405180910390f35b34156104c357600080fd5b6104cb6114ad565b604051808215151515815260200191505060405180910390f35b34156104f057600080fd5b6104f86114c4565b005b341561050557600080fd5b61051f6004808035600019169060200190919050506114fc565b6040518080602001828103825283818151815260200191508051906020019080838360005b8381101561055f578082015181840152602081019050610544565b50505050905090810190601f16801561058c5780820380516001836020036101000a031916815260200191505b509250505060405180910390f35b34156105a557600080fd5b6105bb60048080359060200190919050506116e9565b60405180826000191660001916815260200191505060405180910390f35b34156105e457600080fd5b610610600480803573ffffffffffffffffffffffffffffffffffffffff1690602001909190505061170d565b6040518080602001828103825283818151815260200191508051906020019080838360005b83811015610650578082015181840152602081019050610635565b50505050905090810190601f16801561067d5780820380516001836020036101000a031916815260200191505b509250505060405180910390f35b341561069657600080fd5b61069e6117bd565b6040518082815260200191505060405180910390f35b34156106bf57600080fd5b6106d560048080359060200190919050506117dc565b6040518082815260200191505060405180910390f35b34156106f657600080fd5b61070c6004808035906020019091905050611897565b6040518080602001828103825283818151815260200191508051906020019080838360005b8381101561074c578082015181840152602081019050610731565b50505050905090810190601f1680156107795780820380516001836020036101000a031916815260200191505b509250505060405180910390f35b341561079257600080fd5b61079a6118c9565b6040518082815260200191505060405180910390f35b34156107bb57600080fd5b6107c36118e5565b604051808215151515815260200191505060405180910390f35b6000806000600660009054906101000a900473ffffffffffffffffffffffffffffffffffffffff1673ffffffffffffffffffffffffffffffffffffffff163373ffffffffffffffffffffffffffffffffffffffff161415151561083f57600080fd5b600660149054906101000a900460ff1615151561085b57600080fd5b600660159054906101000a900460ff16151561087657600080fd5b61087e611346565b92506000600301548484011115151561089657600080fd5b83830191506108a4826117dc565b905083348115156108b157fe5b0481111515156108c057600080fd5b6007548114151561090a57806007819055507fa08b74fe3a907750c5777905a2282e2abd3540353c687d5f16e858e5659daf32816040518082815260200191505060405180910390a15b6005805480600101828161091e91906118fc565b916000526020600020906003020160006060604051908101604052808881526020013481526020013373ffffffffffffffffffffffffffffffffffffffff168152509091909150600082015181600001556020820151816001015560408201518160020160006101000a81548173ffffffffffffffffffffffffffffffffffffffff021916908373ffffffffffffffffffffffffffffffffffffffff16021790555050505050505050565b6109d8600063077359406111c6565b6109e760036305f5e1006111c6565b6109f6600763047868c06111c6565b610a05600963039387006111c6565b610a14600b6302faf0806111c6565b610a1c6110fd565b50565b610a2761192e565b610a2f611942565b610a3761192e565b610a3f611942565b6000600580549050604051805910610a545750595b90808252806020026020018201604052509250600580549050604051805910610a7a5750595b90808252806020026020018201604052509150600090505b600580549050811015610b7457600581815481101515610aae57fe5b906000526020600020906003020160020160009054906101000a900473ffffffffffffffffffffffffffffffffffffffff168382815181101515610aee57fe5b9060200190602002019073ffffffffffffffffffffffffffffffffffffffff16908173ffffffffffffffffffffffffffffffffffffffff1681525050600581815481101515610b3957fe5b9060005260206000209060030201600001548282815181101515610b5957fe5b90602001906020020181815250508080600101915050610a92565b8282945094505050509091565b610b89611956565b6000806000610b96611942565b610b9e611942565b6000806000610bab611942565b610bb3611942565b600080600480549050604051805910610bc95750595b90808252806020026020018201604052509350600480549050604051805910610bef5750595b90808252806020026020018201604052509250600091505b600480549050821015610c9b57600482815481101515610c2357fe5b9060005260206000209060020201600001548483815181101515610c4357fe5b9060200190602002018181525050600482815481101515610c6057fe5b9060005260206000209060020201600101548383815181101515610c8057fe5b90602001906020020181815250508180600101925050610c07565b610ca3611346565b905060008001600060030154600660159054906101000a900460ff16600660149054906101000a900460ff168787600660009054906101000a900473ffffffffffffffffffffffffffffffffffffffff163088888054600181600116156101000203166002900480601f016020809104026020016040519081016040528092919081815260200182805460018160011615610100020316600290048015610d8b5780601f10610d6057610100808354040283529160200191610d8b565b820191906000526020600020905b815481529060010190602001808311610d6e57829003601f168201915b505050505098508191509c509c509c509c509c509c509c509c509c5050505050909192939495969798565b6000806000803373ffffffffffffffffffffffffffffffffffffffff16600660009054906101000a900473ffffffffffffffffffffffffffffffffffffffff1673ffffffffffffffffffffffffffffffffffffffff16141515610e1857600080fd5b600660149054906101000a900460ff16151515610e3457600080fd5b600660159054906101000a900460ff161515610e4f57600080fd5b600060030154610e5d611346565b101580610e765750600660149054906101000a900460ff165b156110f7576001600660146101000a81548160ff021916908315150217905550610e9e6118c9565b600781905550600093506000925060009150600090505b60058054905081101561105b57600754600582815481101515610ed457fe5b906000526020600020906003020160000154029150600581815481101515610ef857fe5b906000526020600020906003020160020160009054906101000a900473ffffffffffffffffffffffffffffffffffffffff1673ffffffffffffffffffffffffffffffffffffffff166108fc83600584815481101515610f5357fe5b906000526020600020906003020160010154039081150290604051600060405180830381858888f193505050501515610f8b57600080fd5b8183019250610fb3600885815481101515610fa257fe5b9060005260206000209001546114fc565b60096000600584815481101515610fc657fe5b906000526020600020906003020160020160009054906101000a900473ffffffffffffffffffffffffffffffffffffffff1673ffffffffffffffffffffffffffffffffffffffff1673ffffffffffffffffffffffffffffffffffffffff168152602001908152602001600020908051906020019061104592919061196a565b5083806001019450508080600101915050610eb5565b600660009054906101000a900473ffffffffffffffffffffffffffffffffffffffff1673ffffffffffffffffffffffffffffffffffffffff166108fc849081150290604051600060405180830381858888f1935050505015156110bd57600080fd5b7f4d09689e5ab2d74dc1f9a1e821d4dcb2bb48908bd8a74872127b995b7d1201546007546040518082815260200191505060405180910390a15b50505050565b6000600660009054906101000a900473ffffffffffffffffffffffffffffffffffffffff1673ffffffffffffffffffffffffffffffffffffffff163373ffffffffffffffffffffffffffffffffffffffff1614151561115b57600080fd5b600660159054906101000a900460ff1615151561117757600080fd5b600660149054906101000a900460ff1615151561119357600080fd5b6002600480549050101515156111a857600080fd5b6001600660156101000a81548160ff02191690831515021790555090565b6000600660009054906101000a900473ffffffffffffffffffffffffffffffffffffffff1673ffffffffffffffffffffffffffffffffffffffff163373ffffffffffffffffffffffffffffffffffffffff1614151561122457600080fd5b600660159054906101000a900460ff1615151561124057600080fd5b600660149054906101000a900460ff1615151561125c57600080fd5b6000831015801561126d5750600082115b151561127857600080fd5b60006004805490501415156112ec576001600480549050039050826004828154811015156112a257fe5b9060005260206000209060020201600001541080156112e05750816004828154811015156112cc57fe5b906000526020600020906002020160010154115b15156112eb57600080fd5b5b6004805480600101828161130091906119ea565b9160005260206000209060020201600060408051908101604052808781526020018681525090919091506000820151816000015560208201518160010155505050505050565b60008060009150600090505b6005805490508110156113915760058181548110151561136e57fe5b906000526020600020906003020160000154820191508080600101915050611352565b5090565b61139d611956565b600660159054906101000a900460ff1680156113c55750600660149054906101000a900460ff165b15156113d057600080fd5b600960003373ffffffffffffffffffffffffffffffffffffffff1673ffffffffffffffffffffffffffffffffffffffff1681526020019081526020016000208054600181600116156101000203166002900480601f0160208091040260200160405190810160405280929190818152602001828054600181600116156101000203166002900480156114a35780601f10611478576101008083540402835291602001916114a3565b820191906000526020600020905b81548152906001019060200180831161148657829003601f168201915b5050505050905090565b6000600660149054906101000a900460ff16905090565b6114d3600063077359406111c6565b6114e260016305f5e1006111c6565b6114f1600263047868c06111c6565b6114f96110fd565b50565b611504611956565b61150c611a1c565b6000806000611519611a1c565b60206040518059106115285750595b9080825280601f01601f1916602001820160405250945060009350600092505b6020831015611606578260080260020a876001900402600102915060007f010000000000000000000000000000000000000000000000000000000000000002827effffffffffffffffffffffffffffffffffffffffffffffffffffffffffffff19161415156115f9578185858151811015156115c057fe5b9060200101907effffffffffffffffffffffffffffffffffffffffffffffffffffffffffffff1916908160001a90535083806001019450505b8280600101935050611548565b836040518059106116145750595b9080825280601f01601f19166020018201604052509050600092505b838310156116dc57848381518110151561164657fe5b9060200101517f010000000000000000000000000000000000000000000000000000000000000090047f010000000000000000000000000000000000000000000000000000000000000002818481518110151561169f57fe5b9060200101907effffffffffffffffffffffffffffffffffffffffffffffffffffffffffffff1916908160001a9053508280600101935050611630565b8095505050505050919050565b6008818154811015156116f857fe5b90600052602060002090016000915090505481565b60096020528060005260406000206000915090508054600181600116156101000203166002900480601f0160208091040260200160405190810160405280929190818152602001828054600181600116156101000203166002900480156117b55780601f1061178a576101008083540402835291602001916117b5565b820191906000526020600020905b81548152906001019060200180831161179857829003601f168201915b505050505081565b60003073ffffffffffffffffffffffffffffffffffffffff1631905090565b600080600083600460008154811015156117f257fe5b90600052602060002090600202016000015411156118135760009250611890565b60009150600190505b60048054905081101561186c578360048281548110151561183957fe5b90600052602060002090600202016000015411151561185a5780915061185f565b61186c565b808060010191505061181c565b60048281548110151561187b57fe5b90600052602060002090600202016001015492505b5050919050565b61189f611956565b6118c26008838154811015156118b157fe5b9060005260206000209001546114fc565b9050919050565b6000806118d4611346565b90506118df816117dc565b91505090565b6000600660159054906101000a900460ff16905090565b815481835581811511611929576003028160030283600052602060002091820191016119289190611a30565b5b505050565b602060405190810160405280600081525090565b602060405190810160405280600081525090565b602060405190810160405280600081525090565b828054600181600116156101000203166002900490600052602060002090601f016020900481019282601f106119ab57805160ff19168380011785556119d9565b828001600101855582156119d9579182015b828111156119d85782518255916020019190600101906119bd565b5b5090506119e69190611a86565b5090565b815481835581811511611a1757600202816002028360005260206000209182019101611a169190611aab565b5b505050565b602060405190810160405280600081525090565b611a8391905b80821115611a7f5760008082016000905560018201600090556002820160006101000a81549073ffffffffffffffffffffffffffffffffffffffff021916905550600301611a36565b5090565b90565b611aa891905b80821115611aa4576000816000905550600101611a8c565b5090565b90565b611ad791905b80821115611ad357600080820160009055600182016000905550600201611ab1565b5090565b905600a165627a7a72305820270c1b1d27fbef13ee93850518d7524334ea27c3cfc762ca018163c9fce8fe520029",
  "source": "contract CampEth {\r\n    \r\n    //using strings for *;\r\n\r\n    struct Campaign {\r\n        string code;\r\n        string name;\r\n        uint endTime;\r\n        uint limit;\r\n    }\r\n\r\n    struct CampaignDetail {\r\n        uint quantityLevel;\r\n        uint price;\r\n    }\r\n    \r\n    struct Buyer {\r\n        uint quantity;\r\n        uint value;\r\n        address buyeraddress;\r\n    }\r\n    \r\n    Campaign _campaign;\r\n    CampaignDetail[] _campaignDetails;\r\n    Buyer[] _buyers;\r\n    address _owner;\r\n    bool _ended;\r\n    bool _started;\r\n    uint _currentPrice = 0;\r\n    bytes32[] public _coupons;\r\n    \r\n    mapping(address => string) public _soldcoupons;\r\n    \r\n    event PriceDecreased(uint price);\r\n    event CampaignEnded(uint price);\r\n    \r\n    function CampEth(string code, string name, uint limit, uint addPriceTime, bytes32[] coupons) public { \r\n        require(coupons.length == limit);\r\n        \r\n        _started = false;\r\n\t\t_ended = false;\r\n        _campaign = Campaign({\r\n            code: code,\r\n            name: name,\r\n            endTime: now + addPriceTime,\r\n            limit: limit\r\n        });\r\n        \r\n        //TODO coupons must be distinct\r\n        \r\n        _coupons = coupons;\r\n        \r\n        _owner = msg.sender;\r\n    }\r\n\r\n    \r\n    function AddCampaignDetail(uint quantityLevel, uint price) public {\r\n\t\trequire(msg.sender == _owner);\r\n\t\trequire(!_started);\r\n\t\trequire(!_ended);\r\n\t\trequire(quantityLevel >= 0 && price > 0);\r\n\t\t\r\n\t\tif(_campaignDetails.length != 0)\r\n\t\t{\r\n\t\t    uint lastIndex = _campaignDetails.length - 1;\r\n\t\t    require(_campaignDetails[lastIndex].quantityLevel < quantityLevel && _campaignDetails[lastIndex].price > price);\r\n\t\t}\r\n\t\t\r\n        _campaignDetails.push(CampaignDetail ({\r\n             quantityLevel: quantityLevel,\r\n             price: price\r\n        }));\r\n    }\r\n    \r\n    function GetCampaignInfo() public constant returns(string,uint,bool,bool,uint[],uint[],address,address, uint)\r\n    {\r\n        uint[] memory quantityLevels = new uint[](_campaignDetails.length);\r\n        uint[] memory prices = new uint[](_campaignDetails.length);\r\n        \r\n        for (uint i = 0; i < _campaignDetails.length; i++) {\r\n            quantityLevels[i] = _campaignDetails[i].quantityLevel;\r\n            prices[i] = _campaignDetails[i].price;\r\n        }\r\n        \r\n        uint totalQuantity = getTotalQuantity();\r\n        \r\n        return (_campaign.code, _campaign.limit, _started, _ended, quantityLevels, prices,  _owner, this, totalQuantity);\r\n    }\r\n    \r\n    //TODO Remove Campaign Detail function must be added (before Start Campaign)\r\n    \r\n    function StartCampaign() public returns(bool) {\r\n\t\trequire(msg.sender == _owner);\r\n\t\trequire(!_started);\r\n\t\trequire(!_ended);\r\n\t\trequire(_campaignDetails.length >= 2);\r\n\t\t\r\n        _started = true;\r\n        \r\n        //Can no change other contract property\r\n        //mainContract = MainContract(mainContractAddress);\r\n        //mainContract.AddNewCampaign.gas(800)(address(this));\r\n        \r\n        //mainContract.setdeneme(5);\r\n        \r\n        //return mainContractAddress.call(bytes4(keccak256(\"AddNewCampaign(address)\")), address(this));\r\n        \r\n        //require(mainContractAddress.call(bytes4(keccak256(\"setdeneme(uint)\")), 3) == true);\r\n        //mainContract = MainContract(mainContractAddress);\r\n        //mainContract.setdeneme.gas(800)(4);\r\n        \r\n        //TODO validation must be added : limit must be bigger or equal to the biggest value at the list\r\n        //TODO quantityLevel must be distinct.\r\n    }\r\n\r\n    function Buy(uint quantity) payable public {\r\n        require(msg.sender != _owner);\r\n        require(!_ended);\r\n        require(_started);\r\n        uint totalQuantity = getTotalQuantity();\r\n        require(totalQuantity + quantity <= _campaign.limit);\r\n        \r\n\t\t//According to bought quantity, new price is calculated and validate required amount for this new price.\r\n        uint newQuantity = totalQuantity + quantity;\r\n        \r\n        uint newPrice = getPriceForQuantity(newQuantity);\r\n\r\n        require(newPrice <= msg.value / quantity);\r\n        \r\n        if(newPrice != _currentPrice)\r\n        {\r\n            _currentPrice = newPrice;\r\n            PriceDecreased(newPrice);\r\n        }\r\n        \r\n\t\t//TODO distint process may be done according to address\r\n        _buyers.push(Buyer({\r\n                quantity: quantity,\r\n                value: msg.value,\r\n                buyeraddress: msg.sender\r\n            }));\r\n    }\r\n    \r\n    function checkBalance() constant public returns(uint)\r\n    {\r\n        return this.balance;\r\n    }\r\n    \r\n\t\r\n\t//TODO : Scheduling may be implemented for automatic end.\r\n    function EndCampaign() public\r\n    {\r\n        require(_owner == msg.sender);\r\n        require(!_ended);\r\n        require(_started);\r\n        \r\n\t\t/*\r\n        //If minimum quantitylevel not reached, then return all the money to the buyers \r\n        if(now >= campaign.endTime)\r\n        {\r\n            ended = true;\r\n            if(getTotalQuantity() < campaignDetails[0].quantityLevel)\r\n            {\r\n                for(uint i = 0; i < buyers.length;i ++)\r\n                {\r\n                    buyers[i].buyeraddress.transfer(buyers[i].value);\r\n                } \r\n                \r\n                CampaignEnded(0);\r\n                return;\r\n            }\r\n        }\r\n        */\r\n        \r\n        if(getTotalQuantity() >= _campaign.limit || _ended)\r\n        { \r\n            _ended = true;\r\n            _currentPrice = getCurrentPrice();\r\n            \r\n            uint usedCouponIndex = 0;\r\n            uint totalPrice = 0;\r\n            uint rowTotal = 0;\r\n            for(uint j = 0; j < _buyers.length; j ++)\r\n            {\r\n                //return difference amounts according to decreased price\r\n                rowTotal = _buyers[j].quantity * _currentPrice;\r\n                _buyers[j].buyeraddress.transfer(_buyers[j].value - rowTotal);\r\n                totalPrice += rowTotal;\r\n                \r\n                \r\n                _soldcoupons[_buyers[j].buyeraddress] = bytes32ToString(_coupons[usedCouponIndex]);\r\n                usedCouponIndex ++;\r\n                \r\n                /*\r\n                for(uint k = 0; k < _buyers[j].quantity; k ++)\r\n                {\r\n                    _soldcoupons[_buyers[j].buyeraddress] = _soldcoupons[_buyers[j].buyeraddress].toSlice().concat(bytes32ToString(_coupons[usedCouponIndex]).toSlice());\r\n                    usedCouponIndex ++;\r\n                }\r\n                */\r\n            }\r\n\r\n            _owner.transfer(totalPrice);\r\n            \r\n            CampaignEnded(_currentPrice);\r\n        }\r\n    }\r\n    \r\n    function GetCoupon() public constant returns (string)\r\n    {\r\n        require(_started && _ended);\r\n        return _soldcoupons[msg.sender];\r\n    }\r\n    \r\n    /*\r\n    function GetUsedCoupons() public constant returns (string[])\r\n    {\r\n        require(owner == msg.sender);\r\n        require(started && ended);\r\n        return soldcoupons[msg.sender];\r\n    }\r\n    */\r\n    \r\n    function getTotalQuantity() public constant returns (uint totalQuantity)\r\n    {\r\n        totalQuantity = 0;\r\n        for(uint i = 0; i < _buyers.length;i ++)\r\n        {\r\n            totalQuantity += _buyers[i].quantity;\r\n        }\r\n    }\r\n    \r\n    function getCurrentPrice() public constant returns (uint _currentPrice)\r\n    {\r\n        uint totalQuantity = getTotalQuantity();\r\n\r\n        _currentPrice = getPriceForQuantity(totalQuantity);\r\n    }\r\n    \r\n    function getPriceForQuantity(uint quantity) public constant returns (uint _price)\r\n    {\r\n        if(_campaignDetails[0].quantityLevel > quantity)\r\n        {\r\n            _price = 0;\r\n            return;\r\n        }\r\n        \r\n        uint maxValidIndex = 0;\r\n        for(uint i = 1; i < _campaignDetails.length; i ++)\r\n        {\r\n            if(_campaignDetails[i].quantityLevel <= quantity)\r\n                maxValidIndex = i;\r\n            else\r\n                break;\r\n        }\r\n        \r\n        _price = _campaignDetails[maxValidIndex].price;\r\n\r\n    }\r\n    \r\n    function bytes32ToString(bytes32 x) constant returns (string) {\r\n        bytes memory bytesString = new bytes(32);\r\n        uint charCount = 0;\r\n        for (uint j = 0; j < 32; j++) {\r\n            byte char = byte(bytes32(uint(x) * 2 ** (8 * j)));\r\n            if (char != 0) {\r\n                bytesString[charCount] = char;\r\n                charCount++;\r\n            }\r\n        }\r\n        bytes memory bytesStringTrimmed = new bytes(charCount);\r\n        for (j = 0; j < charCount; j++) {\r\n            bytesStringTrimmed[j] = bytesString[j];\r\n        }\r\n        return string(bytesStringTrimmed);\r\n    }\r\n    \r\n    \r\n    //Test Debug\r\n    function TestCreateDetail() public\r\n    {\r\n        AddCampaignDetail(0,125000000);\r\n        AddCampaignDetail(3,100000000);\r\n        AddCampaignDetail(7,75000000);\r\n        AddCampaignDetail(9,60000000);\r\n        AddCampaignDetail(11,50000000);\r\n        StartCampaign();\r\n    }\r\n    \r\n    //Test Debug\r\n    function TestCreateDetail2() public\r\n    {\r\n        AddCampaignDetail(0,125000000);\r\n        AddCampaignDetail(1,100000000);\r\n        AddCampaignDetail(2,75000000);\r\n        StartCampaign();\r\n    }\r\n    \r\n    function GetBuyers() public constant returns (address[],uint[])\r\n    {\r\n        address[] memory addresses = new address[](_buyers.length);\r\n        uint[] memory quantities = new uint[](_buyers.length);\r\n        \r\n        for (uint i = 0; i < _buyers.length; i++) {\r\n            addresses[i] = _buyers[i].buyeraddress;\r\n            quantities[i] = _buyers[i].quantity;\r\n        }\r\n        \r\n        return (addresses, quantities);\r\n    }\r\n    \r\n    function GetStarted() public constant returns (bool)\r\n    {\r\n        return _started;\r\n    }\r\n    \r\n    function GetEnded() public constant returns (bool)\r\n    {\r\n        return _ended;\r\n    }\r\n    \r\n    \r\n    function TestGetCoupon(uint index) constant public returns(string)\r\n    {\r\n        return bytes32ToString(_coupons[index]);\r\n    }\r\n}\r\n",
  "sourcePath": "C:\\Users\\emesalp\\Documents\\GitHub\\CamPeth2\\contracts\\CampEth.sol",
  "compiler": {
    "name": "solc",
    "version": "0.4.18+commit.9cf6e910.Emscripten.clang"
  },
  "schemaVersion": "1.0.1",
  "updatedAt": "2018-01-03T12:44:19.064Z"
}