{
  "contractName": "MainContract",
  "abi": [
    {
      "constant": true,
      "inputs": [],
      "name": "GetCampaignList",
      "outputs": [
        {
          "name": "",
          "type": "address[]"
        }
      ],
      "payable": false,
      "stateMutability": "view",
      "type": "function"
    },
    {
      "constant": false,
      "inputs": [
        {
          "name": "add1",
          "type": "address"
        }
      ],
      "name": "AddNewCampaign",
      "outputs": [],
      "payable": false,
      "stateMutability": "nonpayable",
      "type": "function"
    }
  ],
  "bytecode": "0x6060604052341561000f57600080fd5b61027f8061001e6000396000f30060606040526004361061004c576000357c0100000000000000000000000000000000000000000000000000000000900463ffffffff1680630dd6d05c146100515780633ef3d0e4146100bb575b600080fd5b341561005c57600080fd5b6100646100f4565b6040518080602001828103825283818151815260200191508051906020019060200280838360005b838110156100a757808201518184015260208101905061008c565b505050509050019250505060405180910390f35b34156100c657600080fd5b6100f2600480803573ffffffffffffffffffffffffffffffffffffffff16906020019091905050610188565b005b6100fc6101ee565b600080548060200260200160405190810160405280929190818152602001828054801561017e57602002820191906000526020600020905b8160009054906101000a900473ffffffffffffffffffffffffffffffffffffffff1673ffffffffffffffffffffffffffffffffffffffff1681526020019060010190808311610134575b5050505050905090565b6000805480600101828161019c9190610202565b9160005260206000209001600083909190916101000a81548173ffffffffffffffffffffffffffffffffffffffff021916908373ffffffffffffffffffffffffffffffffffffffff1602179055505050565b602060405190810160405280600081525090565b81548183558181151161022957818360005260206000209182019101610228919061022e565b5b505050565b61025091905b8082111561024c576000816000905550600101610234565b5090565b905600a165627a7a723058204aa44c3576846c7d2dee589bbffa1aefcfa9e80d3ccd6d424b8bab7132449d9f0029",
  "source": "pragma solidity ^0.4.17;\r\n//import \"github.com/Arachnid/solidity-stringutils/strings.sol\";\r\n\r\ncontract MainContract {\r\n    \r\n    address[] _addressList;\r\n    \r\n    function AddNewCampaign(address add1) public\r\n    {\r\n        _addressList.push(add1);\r\n    }\r\n    \r\n    function GetCampaignList() constant public returns (address[])\r\n    {\r\n        return _addressList;\r\n    }\r\n}",
  "sourcePath": "C:\\Users\\emesalp\\Documents\\GitHub\\CamPeth2\\contracts\\MainContract.sol",
  "compiler": {
    "name": "solc",
    "version": "0.4.18+commit.9cf6e910.Emscripten.clang"
  },
  "schemaVersion": "1.0.1",
  "updatedAt": "2018-01-03T12:44:19.068Z"
}